:100000000C942A000C948A010C94B3010C94DC012A
:100010000C9447000C9447000C9447000C94470044
:100020000C9447000C9447000C94BC020C948D0275
:100030000C9447000C9447000C9447000C94470024
:100040000C9447000C9447000C9447000C94470014
:100050000C94470011241FBECFE5D8E0DEBFCDBF12
:1000600010E0A0E6B0E0E6EEF9E002C005900D92E7
:10007000AA36B107D9F720E0AAE6B0E001C01D9288
:10008000A637B207E1F70E9454000C94F1040C94D7
:10009000000041E060E080E00E947500089560E0AB
:1000A00080E00E944E01089541E061E083E00E94FB
:1000B00075000E94490020E045E060E082E00E9477
:1000C00005026AEC74E585E590E40E94300281E067
:1000D0000E9474026FE470E081E00E948202FFCF10
:1000E00060E472E48FE090E008956130E1F138F06F
:1000F000623009F46CC0633009F49DC0089541304A
:1001000069F44AB321E030E0B90102C0660F771FFD
:100110008A95E2F7CB01842B8ABB089541110EC06A
:100120004AB321E030E0B90102C0660F771F8A951B
:10013000E2F7CB01809584238ABB0895423009F011
:10014000ACC04BB321E030E0B90102C0660F771FAD
:100150008A95E2F7CB01942F982B9BBB9AB380959D
:1001600089238ABB0895413069F447B321E030E028
:10017000B90102C0660F771F8A95E2F7CB01842B85
:1001800087BB089541110EC047B321E030E0B901AB
:1001900002C0660F771F8A95E2F7CB018095842312
:1001A00087BB0895423009F078C048B321E030E0C1
:1001B000B90102C0660F771F8A95E2F7CB01942F31
:1001C000982B98BB97B38095892387BB08954130BE
:1001D00069F444B321E030E0B90102C0660F771F33
:1001E0008A95E2F7CB01842B84BB089541110EC0A0
:1001F00044B321E030E0B90102C0660F771F8A9551
:10020000E2F7CB018095842384BB0895423009F046
:1002100044C045B321E030E0B90102C0660F771F4A
:100220008A95E2F7CB01942F982B95BB94B38095D8
:10023000892384BB0895413069F441B321E030E063
:10024000B90102C0660F771F8A95E2F7CB01842BB4
:1002500081BB089541110EC041B321E030E0B901E6
:1002600002C0660F771F8A95E2F7CB018095842341
:1002700081BB0895423089F442B321E030E0B901F6
:1002800002C0660F771F8A95E2F7CB01942F982B57
:1002900092BB91B38095892381BB0895613099F019
:1002A00028F06230E9F0633041F108954BB321E06A
:1002B00030E0B90102C0660F771F8A95E2F7CB01E3
:1002C00084278BBB089548B321E030E0B90102C018
:1002D000660F771F8A95E2F7CB01842788BB0895C4
:1002E00045B321E030E0B90102C0660F771F8A955F
:1002F000E2F7CB01842785BB089542B321E030E0CB
:10030000B90102C0660F771F8A95E2F7CB018427F7
:1003100082BB08951F920F920FB60F9211242F9354
:100320003F934F935F936F937F938F939F93AF937D
:10033000BF93EF93FF93E0916A00F0916B003097C9
:1003400009F00995FF91EF91BF91AF919F918F9126
:100350007F916F915F914F913F912F910F900FBEC1
:100360000F901F9018951F920F920FB60F921124A5
:100370002F933F934F935F936F937F938F939F93AD
:10038000AF93BF93EF93FF93E0916C00F0916D00FA
:10039000309709F00995FF91EF91BF91AF919F912F
:1003A0008F917F916F915F914F913F912F910F901E
:1003B0000FBE0F901F9018951F920F920FB60F92BD
:1003C00011242F933F934F935F936F937F938F935A
:1003D0009F93AF93BF93EF93FF93E0916E00F091E3
:1003E0006F00309709F00995FF91EF91BF91AF91A0
:1003F0009F918F917F916F915F914F913F912F913D
:100400000F900FBE0F901F9018951CBE22BF99B77A
:100410009F7B99BF99B79F7799BFA82FA170B0E034
:100420000024B695A7950794B695A7950794BA2F7B
:10043000A02D81FBEE27E0F9F0E0EE0FFF1FEE0F9D
:10044000FF1FEE0FFF1F80E1689FB0011124EA2B10
:100450006E2B642B63BF4093750020937400089546
:100460008F929F92AF92BF92CF92DF92EF92FF92C4
:100470006B017C010E9470004B015C01A701960199
:10048000C701B6010E94E9026B017C01E091750091
:10049000F0E03197EE0FFF1FE05AFF4F608171814E
:1004A00080E090E00E94F603A70196010E94840478
:1004B0006B017C01C501B4010E94F603A7019601FE
:1004C0000E94550320E030E040E85FE30E94E8022C
:1004D0000E94C7036CBFFF90EF90DF90CF90BF905A
:1004E000AF909F908F90089599B721E030E002C0BF
:1004F000220F331F8A95E2F7292B29BF8FB7806817
:100500008FBF0895823040F4E82FF0E0EE0FFF1F18
:10051000E059FF4F7183608308951F920F920FB6C9
:100520000F9211242F933F934F935F936F937F9379
:100530008F939F93AF93BF93EF93FF93E0917000DE
:10054000F0917100309709F0099588B7816088BFF4
:100550008091740082BFFF91EF91BF91AF919F9105
:100560008F917F916F915F914F913F912F910F905C
:100570000FBE0F901F9018951F920F920FB60F92FB
:1005800011242F933F934F935F936F937F938F9398
:100590009F93AF93BF93EF93FF93E0917200F0911D
:1005A0007300309709F0099588B7826088BFFF9182
:1005B000EF91BF91AF919F918F917F916F915F91DB
:1005C0004F913F912F910F900FBE0F901F90189554
:1005D0005058BB27AA270E9400030C944A040E948B
:1005E0003C0438F00E94430420F039F49F3F19F492
:1005F00026F40C9439040EF4E095E7FB0C943304D4
:10060000E92F0E945B0458F3BA1762077307840747
:10061000950720F079F4A6F50C947D040EF4E0958E
:100620000B2EBA2FA02D0B01B90190010C01CA01AC
:10063000A0011124FF27591B99F0593F50F4503E57
:1006400068F11A16F040A22F232F342F4427585F49
:10065000F3CF469537952795A795F0405395C9F761
:100660007EF41F16BA0B620B730B840BBAF0915019
:10067000A1F0FF0FBB1F661F771F881FC2F70EC0B8
:10068000BA0F621F731F841F48F48795779567958B
:10069000B795F7959E3F08F0B0CF9395880F08F077
:1006A0009927EE0F9795879508950E9469030C94FA
:1006B0004A040E94430458F00E943C0440F029F48C
:1006C0005F3F29F00C94330451110C947E040C9478
:1006D00039040E945B0468F39923B1F3552391F325
:1006E000951B550BBB27AA2762177307840738F0A1
:1006F0009F5F5F4F220F331F441FAA1FA9F335D0FE
:100700000E2E3AF0E0E832D091505040E695001CB1
:10071000CAF72BD0FE2F29D0660F771F881FBB1F6B
:10072000261737074807AB07B0E809F0BB0B802D49
:10073000BF01FF2793585F4F3AF09E3F510578F075
:100740000C9433040C947E045F3FE4F3983ED4F39E
:10075000869577956795B795F7959F5FC9F7880F49
:10076000911D9695879597F90895E1E0660F771F9B
:10077000881FBB1F621773078407BA0720F0621B2C
:10078000730B840BBA0BEE1F88F7E09508950E9457
:10079000630488F09F5798F0B92F9927B751B0F0AC
:1007A000E1F0660F771F881F991F1AF0BA95C9F7F5
:1007B00014C0B13091F00E947D04B1E008950C9412
:1007C0007D04672F782F8827B85F39F0B93FCCF3C5
:1007D000869577956795B395D9F73EF49095809572
:1007E000709561957F4F8F4F9F4F0895E89409C092
:1007F00097FB3EF490958095709561957F4F8F4F54
:100800009F4F9923A9F0F92F96E9BB279395F69569
:10081000879577956795B795F111F8CFFAF4BB0FE7
:1008200011F460FF1BC06F5F7F4F8F4F9F4F16C04B
:10083000882311F096E911C0772321F09EE8872FD5
:10084000762F05C0662371F096E8862F70E060E091
:100850002AF09A95660F771F881FDAF7880F96950A
:10086000879597F9089597F99F6780E870E060E0B1
:1008700008959FEF80EC089500240A941616170639
:1008800018060906089500240A9412161306140681
:1008900005060895092E0394000C11F4882352F0E4
:1008A000BB0F40F4BF2B11F460FF04C06F5F7F4F9C
:1008B0008F4F9F4F089557FD9058440F551F59F083
:1008C0005F3F71F04795880F97FB991F61F09F3F3D
:1008D00079F087950895121613061406551FF2CF66
:1008E0004695F1DF08C0161617061806991FF1CFB6
:1008F00086957105610508940895E894BB276627DD
:100900007727CB0197F908950E9497040C944A0425
:100910000E943C0438F00E94430420F0952311F01B
:100920000C9433040C94390411240C947E040E941A
:100930005B0470F3959FC1F3950F50E0551F629FC4
:10094000F001729FBB27F00DB11D639FAA27F00D28
:10095000B11DAA1F649F6627B00DA11D661F829F4F
:100960002227B00DA11D621F739FB00DA11D621F34
:10097000839FA00D611D221F749F3327A00D611D51
:10098000231F849F600D211D822F762F6A2F112433
:100990009F5750409AF0F1F088234AF0EE0FFF1F66
:1009A000BB1F661F771F881F91505040A9F79E3FBD
:1009B000510580F00C9433040C947E045F3FE4F303
:1009C000983ED4F3869577956795B795F795E79513
:1009D0009F5FC1F7FE2B880F911D9695879597F91C
:0609E0000895F894FFCF1A
:0A09E60001000800400000010004B9
:00000001FF
